{
  "_format": "hh-sol-artifact-1",
  "contractName": "Mediblokc",
  "sourceName": "contracts/Mediblokc.sol",
  "abi": [
    {
      "anonymous": false,
      "inputs": [
        {
          "indexed": false,
          "internalType": "string",
          "name": "mess",
          "type": "string"
        },
        {
          "indexed": true,
          "internalType": "string",
          "name": "doctorId",
          "type": "string"
        },
        {
          "indexed": true,
          "internalType": "string",
          "name": "patientId",
          "type": "string"
        },
        {
          "indexed": true,
          "internalType": "string",
          "name": "recordId",
          "type": "string"
        }
      ],
      "name": "ErrorEvent",
      "type": "event"
    },
    {
      "anonymous": false,
      "inputs": [
        {
          "indexed": true,
          "internalType": "string",
          "name": "doctorId",
          "type": "string"
        },
        {
          "indexed": true,
          "internalType": "string",
          "name": "patientId",
          "type": "string"
        },
        {
          "indexed": true,
          "internalType": "string",
          "name": "recordId",
          "type": "string"
        }
      ],
      "name": "Transaction",
      "type": "event"
    },
    {
      "inputs": [
        {
          "internalType": "string",
          "name": "_doctorId",
          "type": "string"
        },
        {
          "internalType": "string",
          "name": "_patientId",
          "type": "string"
        },
        {
          "internalType": "string",
          "name": "_recordId",
          "type": "string"
        }
      ],
      "name": "saveTransaction",
      "outputs": [],
      "stateMutability": "nonpayable",
      "type": "function"
    },
    {
      "inputs": [
        {
          "internalType": "string",
          "name": "_patientId",
          "type": "string"
        }
      ],
      "name": "viewRecords",
      "outputs": [
        {
          "internalType": "string[]",
          "name": "",
          "type": "string[]"
        }
      ],
      "stateMutability": "view",
      "type": "function"
    }
  ],
  "bytecode": "0x608060405234801561001057600080fd5b50610b87806100206000396000f3fe608060405234801561001057600080fd5b50600436106100365760003560e01c80635908b4931461003b5780635d41998714610057575b600080fd5b61005560048036038101906100509190610680565b610087565b005b610071600480360381019061006c9190610727565b61038c565b60405161007e91906108ba565b60405180910390f35b600082511480610098575060008151145b806100a4575060008351145b1561015b57806040516100b79190610918565b6040518091039020826040516100cd9190610918565b6040518091039020846040516100e39190610918565b60405180910390207f2bea1a9a98f6a520ba0f1736bac707a02c590c0e5393ffc0087b231d3c2009256040516101189061098c565b60405180910390a46040517f08c379a0000000000000000000000000000000000000000000000000000000008152600401610152906109f8565b60405180910390fd5b818051906020012083805190602001201415610223578060405161017f9190610918565b6040518091039020826040516101959190610918565b6040518091039020846040516101ab9190610918565b60405180910390207f2bea1a9a98f6a520ba0f1736bac707a02c590c0e5393ffc0087b231d3c2009256040516101e090610a64565b60405180910390a46040517f08c379a000000000000000000000000000000000000000000000000000000000815260040161021a90610ad0565b60405180910390fd5b6000604051806040016040528085815260200183815250905060008360405161024c9190610918565b908152602001604051809103902081908060018154018082558091505060019003906000526020600020906002020160009091909190915060008201518160000190805190602001906102a0929190610483565b5060208201518160010190805190602001906102bd929190610483565b5050506001836040516102d09190610918565b908152602001604051809103902082908060018154018082558091505060019003906000526020600020016000909190919091509080519060200190610317929190610483565b50816040516103269190610918565b60405180910390208360405161033c9190610918565b6040518091039020856040516103529190610918565b60405180910390207f9c09ca27a36f9e304bd04028911740b8defd2e74085f4a3bba6c4576c752d07f60405160405180910390a450505050565b606060018260405161039e9190610918565b9081526020016040518091039020805480602002602001604051908101604052809291908181526020016000905b828210156104785783829060005260206000200180546103eb90610b1f565b80601f016020809104026020016040519081016040528092919081815260200182805461041790610b1f565b80156104645780601f1061043957610100808354040283529160200191610464565b820191906000526020600020905b81548152906001019060200180831161044757829003601f168201915b5050505050815260200190600101906103cc565b505050509050919050565b82805461048f90610b1f565b90600052602060002090601f0160209004810192826104b157600085556104f8565b82601f106104ca57805160ff19168380011785556104f8565b828001600101855582156104f8579182015b828111156104f75782518255916020019190600101906104dc565b5b5090506105059190610509565b5090565b5b8082111561052257600081600090555060010161050a565b5090565b6000604051905090565b600080fd5b600080fd5b600080fd5b600080fd5b6000601f19601f8301169050919050565b7f4e487b7100000000000000000000000000000000000000000000000000000000600052604160045260246000fd5b61058d82610544565b810181811067ffffffffffffffff821117156105ac576105ab610555565b5b80604052505050565b60006105bf610526565b90506105cb8282610584565b919050565b600067ffffffffffffffff8211156105eb576105ea610555565b5b6105f482610544565b9050602081019050919050565b82818337600083830152505050565b600061062361061e846105d0565b6105b5565b90508281526020810184848401111561063f5761063e61053f565b5b61064a848285610601565b509392505050565b600082601f8301126106675761066661053a565b5b8135610677848260208601610610565b91505092915050565b60008060006060848603121561069957610698610530565b5b600084013567ffffffffffffffff8111156106b7576106b6610535565b5b6106c386828701610652565b935050602084013567ffffffffffffffff8111156106e4576106e3610535565b5b6106f086828701610652565b925050604084013567ffffffffffffffff81111561071157610710610535565b5b61071d86828701610652565b9150509250925092565b60006020828403121561073d5761073c610530565b5b600082013567ffffffffffffffff81111561075b5761075a610535565b5b61076784828501610652565b91505092915050565b600081519050919050565b600082825260208201905092915050565b6000819050602082019050919050565b600081519050919050565b600082825260208201905092915050565b60005b838110156107d65780820151818401526020810190506107bb565b838111156107e5576000848401525b50505050565b60006107f68261079c565b61080081856107a7565b93506108108185602086016107b8565b61081981610544565b840191505092915050565b600061083083836107eb565b905092915050565b6000602082019050919050565b600061085082610770565b61085a818561077b565b93508360208202850161086c8561078c565b8060005b858110156108a857848403895281516108898582610824565b945061089483610838565b925060208a01995050600181019050610870565b50829750879550505050505092915050565b600060208201905081810360008301526108d48184610845565b905092915050565b600081905092915050565b60006108f28261079c565b6108fc81856108dc565b935061090c8185602086016107b8565b80840191505092915050565b600061092482846108e7565b915081905092915050565b600082825260208201905092915050565b7f257320257320257320696e76616c696420696400000000000000000000000000600082015250565b600061097660138361092f565b915061098182610940565b602082019050919050565b600060208201905081810360008301526109a581610969565b9050919050565b7f4d656469626c6f6b635f5f496e76616c69644964000000000000000000000000600082015250565b60006109e260148361092f565b91506109ed826109ac565b602082019050919050565b60006020820190508181036000830152610a11816109d5565b9050919050565b7f257320257320257320696e76616c696420616464726573730000000000000000600082015250565b6000610a4e60188361092f565b9150610a5982610a18565b602082019050919050565b60006020820190508181036000830152610a7d81610a41565b9050919050565b7f4d656469626c6f6b635f5f496e76616c69644164647265737300000000000000600082015250565b6000610aba60198361092f565b9150610ac582610a84565b602082019050919050565b60006020820190508181036000830152610ae981610aad565b9050919050565b7f4e487b7100000000000000000000000000000000000000000000000000000000600052602260045260246000fd5b60006002820490506001821680610b3757607f821691505b60208210811415610b4b57610b4a610af0565b5b5091905056fea2646970667358221220b9d7b21615b8044caf271ef096ff6295a5fac5c9d1be22137e2d2cc3083faadc64736f6c63430008080033",
  "linkReferences": {},
  "deployedLinkReferences": {}
}